:020000040000FA
:100000000C9462000C948A000C948A000C948A0070
:100010000C948A000C948A000C948A000C948A0038
:100020000C948A000C948A000C948A000C948A0028
:100030000C948A000C948A000C948A000C948A0018
:100040000C94A4010C948A000C948A000C948A00ED
:100050000C948A000C948A000C948A000C948A00F8
:100060000C948A000C948A000000000024002700F1
:100070002A0000000000250028002B0000000000DE
:1000800023002600290004040404040404040202DA
:100090000202020203030303030301020408102007
:1000A0004080010204081020010204081020000012
:1000B0000008000201000003040700000000000027
:1000C0000000770411241FBECFEFD8E0DEBFCDBF04
:1000D00011E0A0E0B1E0ECE0F9E002C005900D9283
:1000E000A430B107D9F721E0A4E0B1E001C01D922E
:1000F000AB32B207E1F710E0C2E6D0E004C02197CE
:10010000FE010E947E04C136D107C9F70E94EE01AC
:100110000C9484040C940000833081F028F4813026
:1001200099F08230A9F008958730A9F08830C9F09D
:100130008430B1F4809180008F7D03C08091800075
:100140008F7780938000089584B58F7784BD08955C
:1001500084B58F7DFBCF8091B0008F778093B00006
:1001600008958091B0008F7DF9CFCF93DF93282F32
:1001700030E0F901E255FF4F8491F901E656FF4F57
:10018000D491F901EA57FF4FC491CC23A1F081111A
:100190000E948C00EC2FF0E0EE0FFF1FE458FF4FA1
:1001A000A591B491EC91ED2381E090E009F480E019
:1001B000DF91CF91089580E090E0FACF1F93CF9325
:1001C000DF93282F30E0F901E255FF4F8491F901C8
:1001D000E656FF4FD491F901EA57FF4FC491CC2363
:1001E000A9F0162F81110E948C00EC2FF0E0EE0F89
:1001F000FF1FEE58FF4FA591B4918FB7F894EC9183
:10020000111108C0D095DE23DC938FBFDF91CF9111
:100210001F910895DE2BF8CFCF93DF9390E0FC0180
:10022000E656FF4F24918A579F4FFC018491882303
:10023000D1F090E0880F991FFC01E859FF4FA5917C
:10024000B491FC01EE58FF4FC591D49161110EC0DD
:100250009FB7F8948C91E22FE0958E238C932881A0
:10026000E223E8839FBFDF91CF9108958FB7F89481
:10027000EC91E22BEC938FBFF6CF3FB7F8948091CF
:10028000090190910A01A0910B01B0910C0126B5D2
:10029000A89B05C02F3F19F00196A11DB11D3FBFBE
:1002A000BA2FA92F982F8827BC01CD01620F711D8D
:1002B000811D911D42E0660F771F881F991F4A9587
:1002C000D1F708958F929F92AF92BF92CF92DF9213
:1002D000EF92FF920E943D014B015C0184EFC82E1A
:1002E000DD24D394E12CF12C0E943D016819790999
:1002F0008A099B09683E734081059105A8F321E0B6
:10030000C21AD108E108F10888EE880E83E0981E31
:10031000A11CB11CC114D104E104F10429F7FF9020
:10032000EF90DF90CF90BF90AF909F908F90089507
:100330002FB7F89460910501709106018091070133
:10034000909108012FBF08951F920F920FB60F9240
:1003500011242F933F938F939F93AF93BF938091DB
:10036000050190910601A0910701B091080130911B
:10037000040123E0230F2D3758F50196A11DB11D6F
:10038000209304018093050190930601A093070137
:10039000B09308018091090190910A01A0910B018D
:1003A000B0910C010196A11DB11D8093090190939C
:1003B0000A01A0930B01B0930C01BF91AF919F91E3
:1003C0008F913F912F910F900FBE0F901F90189516
:1003D00026E8230F0296A11DB11DD2CF789484B5D3
:1003E000826084BD84B5816084BD85B5826085BD31
:1003F00085B5816085BD80916E00816080936E00BF
:1004000010928100809181008260809381008091B0
:100410008100816080938100809180008160809361
:1004200080008091B10084608093B1008091B00021
:1004300081608093B00080917A00846080937A001C
:1004400080917A00826080937A0080917A00816046
:1004500080937A0080917A00806880937A0010926D
:10046000C10061E080E00E940C0161E08CE00E942C
:100470000C0161E088E00E940C0160E08FE00E94C6
:100480000C0161E082E00E940C0161E08BE00E94BF
:100490000C0161E08AE00E940C0161E089E00E94A9
:1004A0000C0160E08DE00E940C0161E08EE00E9492
:1004B0000C0161E081E10E940C0161E082E10E9497
:1004C0000C0161E083E10E940C0160E083E00E9486
:1004D0000C0160E080E00E94DE0060E08CE00E94A1
:1004E000DE0060E088E00E94DE0060E08BE00E94B9
:1004F000DE0060E08AE00E94DE0061E089E00E94A8
:10050000DE0060E081E10E94DE0060E082E10E94A6
:10051000DE0061E083E10E94DE0060E08EE00E9488
:10052000DE0000E010E0C1E0D0E08FE00E94B50006
:100530005C018DE00E94B5006C0183E00E94B50073
:100540007C010E94980160931701709318018093B9
:10055000190190931A010E94980160931B017093F6
:100560001C0180931D0190931E010E9498016093CD
:100570001F017093200180932101909322010E941A
:100580009801609323017093240180932501909337
:1005900026018091170190911801A0911901B09145
:1005A0001A01803D9740A105B10500F58091150124
:1005B00090911601892BD1F460E088E00E94DE0062
:1005C00061E080E00E94DE00D0931601C093150127
:1005D0000E9498016093270170932801809329015C
:1005E00090932A01D0931401C093130180911701B5
:1005F00090911801A0911901B0911A01803D974086
:10060000A105B10570F18091150190911601019736
:1006100041F560E080E00E94DE0061E08CE00E9435
:10062000DE000E94620160E08CE00E94DE0061E07A
:1006300088E00E94DE0010920301109202011092E5
:1006400016011092150110921401109213010E94CC
:10065000980160932701709328018093290190935A
:100660002A0180911B0190911C01A0911D01B09164
:100670001E01803A9F40A105B10500F5809102015D
:1006800090910301892BD1F460E089E00E94DE00A3
:1006900061E08BE00E94DE00D0930301C093020171
:1006A000D0931201C09311010E9498016093270119
:1006B000709328018093290190932A0180911B0156
:1006C00090911C01A0911D01B0911E01803A9F40A4
:1006D000A105B10570F1809102019091030101978C
:1006E00041F560E08BE00E94DE0061E08AE00E945C
:1006F000DE000E94620160E08AE00E94DE0061E0AC
:1007000089E00E94DE001092010110920001109217
:1007100003011092020110921201109211010E9425
:100720009801609327017093280180932901909389
:100730002A0180911F0190912001A0912101B09187
:10074000220180379741A105B10520F58091000174
:1007500090910101892BF1F461E083E10E940C0189
:1007600060E083E10E94DE0061E081E10E94DE0042
:10077000D0930101C0930001D0931001C0930F01E9
:100780000E949801609327017093280180932901AA
:1007900090932A0180911F0190912001A091210145
:1007A000B091220180379741A105B105B8F1809140
:1007B000000190910101019789F560E081E10E94BB
:1007C000DE0061E082E10E94DE000E94620161E0E1
:1007D00082E10E940C0160E082E10E94DE0061E0A3
:1007E00083E10E94DE000E949801609327017093CC
:1007F00028018093290190932A01109216011092EA
:1008000015011092010110920001E0910D01F0918B
:100810000E0109951092100110920F0180911301A1
:1008200090911401892B89F4AA94AB2871F461E0AA
:1008300082E00E94DE000E9498016093270170937D
:1008400028018093290190932A01809111019091B0
:100850001201892B89F4CA94CD2871F461E082E0F9
:100860000E94DE000E949801609327017093280186
:100870008093290190932A0180910F01909110019A
:10088000892B89F4EA94EF2871F461E082E00E94F8
:10089000DE000E94980160932701709328018093E5
:1008A000290190932A018091230190912401A09124
:1008B0002501B091260140912701509128016091B6
:1008C000290170912A01841B950BA60BB70B803967
:1008D0009140A105B10520F060E082E00E94DE00B9
:1008E0000115110509F421CE0E9400001ECE8EE0F4
:1008F00090E090930E0180930D010895EE0FFF1F7D
:100900000590F491E02D0994F894FFCF01000100C7
:107E0000112484B714BE81FFF0D085E080938100F7
:107E100082E08093C00088E18093C10086E0809377
:107E2000C20080E18093C4008EE0C9D0259A86E02C
:107E300020E33CEF91E0309385002093840096BBD3
:107E4000B09BFECF1D9AA8958150A9F7CC24DD24C4
:107E500088248394B5E0AB2EA1E19A2EF3E0BF2EE7
:107E6000A2D0813461F49FD0082FAFD0023811F036
:107E7000013811F484E001C083E08DD089C08234E0
:107E800011F484E103C0853419F485E0A6D080C0E4
:107E9000853579F488D0E82EFF2485D0082F10E0AE
:107EA000102F00270E291F29000F111F8ED06801E7
:107EB0006FC0863521F484E090D080E0DECF843638
:107EC00009F040C070D06FD0082F6DD080E0C81688
:107ED00080E7D80618F4F601B7BEE895C0E0D1E017
:107EE00062D089930C17E1F7F0E0CF16F0E7DF06D8
:107EF00018F0F601B7BEE89568D007B600FCFDCFD4
:107F0000A601A0E0B1E02C9130E011968C91119780
:107F100090E0982F8827822B932B1296FA010C0160
:107F200087BEE89511244E5F5F4FF1E0A038BF0790
:107F300051F7F601A7BEE89507B600FCFDCF97BE46
:107F4000E89526C08437B1F42ED02DD0F82E2BD052
:107F50003CD0F601EF2C8F010F5F1F4F84911BD097
:107F6000EA94F801C1F70894C11CD11CFA94CF0C13
:107F7000D11C0EC0853739F428D08EE10CD085E9AC
:107F80000AD08FE07ACF813511F488E018D01DD067
:107F900080E101D065CF982F8091C00085FFFCCF94
:107FA0009093C60008958091C00087FFFCCF809118
:107FB000C00084FD01C0A8958091C6000895E0E648
:107FC000F0E098E1908380830895EDDF803219F02E
:107FD00088E0F5DFFFCF84E1DECF1F93182FE3DFCA
:107FE0001150E9F7F2DF1F91089580E0E8DFEE27F6
:047FF000FF270994CA
:027FFE00040479
:00000001FF
